:020000041C00DE
:100400006F0000506F00C04F6F00804F6F00404F73
:100410006F00004F6F00C04E6F00804E6F00404E67
:100420006F00004E6F00C04D6F00804D6F00404D5B
:100430006F00004D6F00C04C6F00804C6F00404C4F
:100440006F00004C6F00C04B6F00804B6F00404B43
:100450006F00004B6F00C04A6F00804A6F00404A37
:100460006F00004A6F00C0496F0080496F0040492B
:100470006F0000496F00C0486F0080486F0040481F
:100480006F0000486F00C0476F0080476F00404713
:100490006F0000476F00C0466F0080466F00404607
:1004A0006F0000466F00C0456F0080456F004045FB
:1004B0006F0000456F00C0446F0080446F004044EF
:1004C0006F0000446F00C0436F0080436F004043E3
:1004D0006F0000436F00C0426F0080426F004042D7
:1004E0006F0000426F00C0416F0080416F004041CB
:1004F0006F0000416F00C0406F0080406F004040BF
:100500006F0000406F00C03F6F00803F6F00403FB2
:100510006F00003F6F00C03E6F00803E6F00403EA6
:100520006F00003E6F00C03D6F00803D6F00403D9A
:100530006F00003D6F00C03C6F00803C6F00403C8E
:100540006F00003C6F00C03B6F00803B6F00403B82
:100550006F00003B6F00C03A6F00803A6F00403A76
:100560006F00003A6F00C0396F0080396F0040396A
:100570006F0000396F00C0386F0080386F0040385E
:100580006F0000386F00C0376F0080376F00403752
:100590006F0000376F00C0366F0080366F00403646
:1005A0006F0000366F00C0356F0080356F0040353A
:1005B0006F0000356F00C0346F0080346F0040342E
:1005C0006F0000346F00C0336F0080336F00403322
:1005D0006F0000336F00C0326F0080326F00403216
:1005E0006F0000326F00C0316F0080316F0040310A
:1005F0006F0000316F00C0306F0080306F004030FE
:100600006F0000306F00C02F6F00802F6F00402FF1
:100610006F00002F6F00C02E6F00802E6F00402EE5
:100620006F00002E6F00C02D6F00802D6F00402DD9
:100630006F00002D6F00C02C6F00802C6F00402CCD
:100640006F00002C6F00C02B6F00802B6F00402BC1
:100650006F00002B6F00C02A6F00802A6F00402AB5
:100660006F00002A6F00C0296F0080296F004029A9
:100670006F0000296F00C0286F0080286F0040289D
:100680006F0000286F00C0276F0080276F00402791
:100690006F0000276F00C0266F0080266F00402685
:1006A0006F0000266F00C0256F0080256F00402579
:1006B0006F0000256F00C0246F0080246F0040246D
:1006C0006F0000246F00C0236F0080236F00402361
:1006D0006F0000236F00C0226F0080226F00402255
:1006E0006F0000226F00C0216F0080216F00402149
:1006F0006F0000216F00C0206F0080206F0040203D
:100700006F0000206F00C01F6F00801F6F00401F30
:100710006F00001F6F00C01E6F00801E6F00401E24
:100720006F00001E6F00C01D6F00801D6F00401D18
:100730006F00001D6F00C01C6F00801C6F00401C0C
:100740006F00001C6F00C01B6F00801B6F00401B00
:100750006F00001B6F00C01A6F00801A6F00401AF4
:100760006F00001A6F00C0196F0080196F004019E8
:100770006F0000196F00C0186F0080186F004018DC
:100780006F0000186F00C0176F0080176F004017D0
:100790006F0000176F00C0166F0080166F004016C4
:1007A0006F0000166F00C0156F0080156F004015B8
:1007B0006F0000156F00C0146F0080146F004014AC
:1007C0006F0000146F00C0136F0080136F004013A0
:1007D0006F0000136F00C0126F0080126F00401294
:1007E0006F0000126F00C0116F0080116F00401188
:1007F0006F0000116F00C0106F0080106F0040107C
:10088000978100009381C14C732540F19375F50168
:1008900015817D466304A6006F00A05A17D10000A1
:1008A00013014108170500001305C5B513651500B0
:1008B000731055307310753097820000938202F5E3
:1008C0001383413D23A002009102E3ED62FE172550
:1008D00000001305E511EF20E00DEF204017024561
:1008E0004C000146EF10707B6F20800D828000006D
:1008F00000000000000000000000000000000000F8
:10090000130181F806C216C41AC61EC822CA26CC14
:100910002ACE2ED032D236D43AD63ED842DA46DC6F
:100920004ADECEC0D2C2D6C4DAC6DEC8E2CAE6CC3F
:10093000EACEEED0F2D2F6D4FAD6FED8F3220030C8
:1009400096DA2111F322008073231080F323208094
:10095000732E4080F32E5080732F608016C21AC40D
:100960001EC672C876CA7ACC83A241F723A02200A1
:1009700073252034F32510341356F50109CA2EC00F
:10098000178100000321C1E7EF00D0520DA89105A7
:100990002EC0AD421375F57F631955001781000015
:1009A000032101E6EF00900619A8F32220347323F7
:1009B0001034F3230030D5BFF3222034F5BF03A356
:1009C00041F7032103008242739012349242224382
:1009D000B243424ED24E624F739002807310138026
:1009E0007390238073104E8073905E8073106F80BD
:1009F0006101D652739002309240A2423243C24308
:100A00005244E244724582551256A2563257C2579A
:100A10005258E25872598649164AA64A364BC64B76
:100A2000564CE64C764D865D165EA65E365FC65F1A
:100A30001301810773002030130000001300000031
:100A4000130000001300000013000000130000005A
:100A5000130000001300000013000000130000004A
:100A6000130000001300000013000000130000003A
:100A7000130000001300000013000000130000002A
:100A8000130000001300000013000000130000001A
:100A9000130000001300000013000000130000000A
:100AA00013000000130000001300000013000000FA
:100AB00013000000130000001300000013000000EA
:100AC00013000000130000001300000013000000DA
:100AD00013000000130000001300000013000000CA
:100AE00013000000130000001300000013000000BA
:100AF00013000000130000001300000013000000AA
:100B0000130181F806C216C41AC61EC822CA26CC12
:100B10002ACE2ED032D236D43AD63ED842DA46DC6D
:100B20004ADECEC0D2C2D6C4DAC6DEC8E2CAE6CC3D
:100B3000EACEEED0F2D2F6D4FAD6FED8F3220030C6
:100B400096DA2111F322008073231080F323208092
:100B5000732E4080F32E5080732F608016C21AC40B
:100B60001EC672C876CA7ACC83A241F723A022009F
:100B700073252034F32510342EC017810000032183
:100B800021C8EF00C055E30C05E2EF00206803A385
:100B900041F70321030082427390123492422243B0
:100BA000B243424ED24E624F739002807310138054
:100BB0007390238073104E8073905E8073106F80EB
:100BC0006101D652739002309240A2423243C24336
:100BD0005244E244724582551256A2563257C257C9
:100BE0005258E25872598649164AA64A364BC64BA5
:100BF000564CE64C764D865D165EA65E365FC65F49
:100C0000130181077300203013000000130000005F
:100C10001300000013000000130000001300000088
:100C20001300000013000000130000001300000078
:100C30001300000013000000130000001300000068
:100C40001300000013000000130000001300000058
:100C50001300000013000000130000001300000048
:100C60001300000013000000130000001300000038
:100C70001300000013000000130000001300000028
:100C80001300000013000000130000001300000018
:100C90001300000013000000130000001300000008
:100CA00013000000130000001300000013000000F8
:100CB00013000000130000001300000013000000E8
:100CC00013000000130000001300000013000000D8
:100CD00013000000130000001300000013000000C8
:100CE00013000000130000001300000013000000B8
:100CF00013000000130000001300000013000000A8
:100D000003A141F70241824092422243B243424E44
:100D1000D24E624F739002807310138073902380C1
:100D200073104E8073905E8073106F806101324348
:100D3000C2435244E244724582551256A25632577B
:100D4000C2575258E25872598649164AA64A364B3B
:100D5000C64B564CE64C764D865D165EA65E365FFB
:100D6000C65FD652A10273900230A24213018107DE
:100D70008280130000001300000013000000130025
:100D80000000130000001300000013000000130017
:100D90000000130000001300000013000000130007
:100DA00000001300000013000000130000001300F7
:100DB00000001300000013000000130000001300E7
:100DC00000001300000013000000130000001300D7
:100DD00000001300000013000000130000001300C7
:100DE00000001300000013000000130000001300B7
:100DF00000001300000013000000130000000100B9
:100E0000F322003093F272FF130380181203B3E24F
:100E10006200711523205500130585FA10C12115B4
:100E200023200500930260006387020071152320D0
:100E30000500FD12D5BF71150CC1828000000000B5
:100E40000000336DB000B70207000143054E37497B
:100E50002000130909209303000237442000338E39
:100E6000C303B744200093840408B30BC9012324AF
:100E700054006394650A93020020170C0000130CC1
:100E8000AC0D232A54008949138A41FA136C1C00C3
:100E900073500430832A0A00638A0A069700000010
:100EA0009380600603AB0A0063020B0683220B00EB
:100EB00003254B0003238B008323CB00032E0B0160
:100EC000832E4B0133017300032F4B023363010068
:100ED00013661F0063060F002320E9012326E901A2
:100EE00023A0CB0023A6CB00934F1F00638A0E00E4
:100EF00023A2F40123A0840123A0640023A0C40141
:100F0000828233655001EF00901349BF23243401DE
:100F10008362C4032322340151B7170A0000130A65
:100F20006A01970A0000938A2A01B360400119A060
:100F300083E2CB0183E2040003E5040013F3120013
:100F4000B3B202C063150300B36040018282B36094
:100F50005001828283E20400B382A2033301550070
:100F600082803795101A0841333585EE1317250016
:100F7000938781C4BA979C4399CB411106C6938746
:100F800081C4BA979C438297B2404101828082809B
:100F90002A8309CA83830500230073007D16050395
:100FA00085056DFA82802A8311C62300B3007D1661
:100FB000050365FE82805C41DCC1984798C54CC33F
:100FC0008CC788C91C4185071CC18280904163235E
:100FD000F60393078500BE86DC439843E37DE6FE77
:100FE000DC42DCC18CC794C5CCC288C91C418507D2
:100FF0001CC182801449EDB71C495441184598C65C
:10100000544154C3D8436309A700232805009843DB
:101010007D1798C3884382801845D8C3FDB783A73E
:1010200081F79C4389E77D5723A6E1F8828083A757
:1010300081F7DC47DC47D84323A6E1F882804111E1
:1010400006C622C426C24AC02A84AE8403A9C1F9B6
:10105000938741F79843A302074888431105693FE6
:1010600011ED83A741F7D8578547B397E70093C79A
:10107000F7FF138781F81443F58F1CC36324F4032F
:101080004A9483A741F7C0C36378240303A5C1F73B
:1010900083A541F791051D3FB24022449244024985
:1010A00041018280F1DC83A541F791053795001C51
:1010B000130505880937CDB703A581F783A541F747
:1010C0009105293783A7C1F8E378F4FC23A681F8BA
:1010D000E1B7938741F89843050798C382800111CF
:1010E00006CE22CC26CA4AC84EC683A741F86391D1
:1010F00007109387C1F98443850484C39DE083A7C7
:1011000081F79C43B9EB138781F714439387C1F7A9
:10111000904310C394C3938701F99843050798C37C
:10112000FD3D83A7C1F863FCF40A014983A741F799
:10113000DC57139727003E9793162700B797001C9C
:1011400093878780B6979843854763F3E7000549FF
:1011500083A701FAC5C7054955A0B786001C938629
:10116000C6043786001C1306C6158565938595AAA7
:101170003785001C13058500EF10C07F054983A744
:1011800081F79C43B9CF83A781F7DC47C0475C4018
:1011900063EDF404930944004E85B93D1C5481C7A6
:1011A00013058401913D54548547B397D7001387A5
:1011B00081F81043D18F1CC393972600B6971395DF
:1011C0002700CE85B797001C938787803E95E5332F
:1011D000585483A741F7DC57E372F7FA4DB701493A
:1011E00079BF7D5723A6E1F891B723A6F1F83DBF5B
:1011F000938741F99843050798C301494A85F2400E
:101200006244D2444249B2490561828083A741F8D1
:1012100089C7054723A0E1FA8280411106C623A0B1
:1012200001FA83A741F7985B1443B7A7A5A5938755
:10123000575A6399F6005443B7A7A5A59387575A01
:101240006383F608938741F788438C43938545036E
:10125000EF10C07003A781F833170710931627000B
:10126000BA9613962600B797001C93878780B2978B
:101270009C43ADCB93162700BA9613962600B797DA
:10128000001C93878780B297D443D442D4C3A1076C
:10129000638BF606931727003E9793162700B797A0
:1012A000001C93878780B697DC43D847938741F724
:1012B00098C39C43938787053787001C232CF77EB0
:1012C000B240410182801447B7A7A5A59387575A1A
:1012D000E39AF6F65847B7A7A5A59387575AE3139D
:1012E000F7F68DBFB786001C9386460C3786001C28
:1012F000130606178565938515BE3785001C1305F3
:101300008500EF102067CC42B797001C9387878039
:10131000B297CCC341B77370043083A781F981CBF6
:10132000938741F79443F8420507F8C29C438280B3
:1013300083A781F985C383A741F7FC4381CF9387B6
:1013400041F79443F8427D17F8C29C43FC4399E36C
:10135000736004308280411106C622C426C283A76E
:1013600041F899CF4D3F938741F898437D1798C333
:101370009C436395070C83A701F885E70144C1A04E
:10138000B786001C938686123786001C1306C61487
:101390008565938595893785001C13058500EF10B9
:1013A000605D0144B797001C83A7C786B9CFB79784
:1013B000001C9387C786DC47C04713058401EFF004
:1013C000BFC3930444002685EFF01FC3485405476C
:1013D0003317A700938681F89C425D8F98C29317BC
:1013E0002500AA978A07A6853795001C13058580D6
:1013F0003E95EFF05FBC585483A741F7DC57E36399
:10140000F7FA054723A0E1FA71BF19C0EFF03FC119
:1014100003A441F911E803A401FA15C07300000008
:10142000054431A87D1401C8EFF07FCB65DD054789
:1014300023A0E1FAC5BF23AA01F8F1BF0144CD3DC5
:101440002285B240224492444101828031C541113B
:1014500006C622C42A8483A741F899EFEFF07FC71C
:1014600081452285EFF0BFBDFD3519E17300000015
:10147000B240224441018280B786001C9386C61088
:101480003786001C13060614930540543785001C4C
:1014900013058500EF10004E7300000082807D551B
:1014A000828041112A87B727101A938787099C43A6
:1014B000C18BF5FB02C621A0B24785073EC6B246E6
:1014C00085679387F7BFE3D9D7FEB347F7C137479F
:1014D000101A1307070A1CC373005010F5BF896761
:1014E000DCC101458280054582807D1513351500DC
:1014F0008280594723A8E13C7D5582800145828046
:1015000001458280411106C622C426C24AC0B28467
:101510007D15854763E6A704B727101A93878709C7
:101520009C43C18BF5FB1304001033D4840437951E
:10153000001C13094589228613054589EFF05FA534
:10154000B727101A9387070823A82701C4CB414760
:1015500098CF2285B24022449244024941018280C0
:101560001307800523A8E13C7D55EDB7AA8737878F
:10157000001C0325077FAA9737D7001C1307071203
:1015800063F7E7003787001C2328F77E8280314706
:1015900023A8E13C7D558280411106C6EFF07FB360
:1015A000B24041018280411106C6EFF0DFDAB2405D
:1015B00041018280411106C622C473740430138530
:1015C00041FC392073100430B24022444101828032
:1015D0001C411D06333606C4014791C763F5B700A9
:1015E0003E87DC43DDBFB386C500638CF60090C147
:1015F000DCC105C71C43B306F700638AB6004CC3C1
:1016000082809443369690C1DC43DCC1DDB79441BF
:10161000B6971CC3DC415CC382800CC1828041113F
:1016200006C6EFF0DFAB01E5B24041018280EFF08A
:10163000FFBDDDBF411106C622C4EF00C03EB79713
:10164000001C938787D13717001C1307476F98C773
:101650003717001C1307E76198D73717001C1307CB
:1016600027F6B8D7EF00C03D6945EF000041EF0015
:10167000603A2945EF00603A6945EF00003A3724A7
:10168000101A1C40B3C707C02B20F408094591204D
:10169000B96793870710AA97716513050520B3D71B
:1016A000A702FD17C20793E767315CD0B24022441E
:1016B00041018280411106C69377F50F3795001CD2
:1016C0008A07130585D13E951C418297B24041019E
:1016D0008280854763F9A700633C25003795980011
:1016E00013050568828037353101130505D08280E6
:1016F00001458280411106C622C426C21306E002BB
:10170000B785001C9385C5213785001C1305451836
:10171000EF10B00483A441FAC058B33714FCB5EFFE
:101720001C48CDEF1306F003B785001C9385C52137
:101730003785001C1305451DEF103002B786001CCD
:101740009386C6549042330706108547B397E70047
:1017500093C7F7FFF18F9CC29D4763F4E706930799
:1017600087FF93963700BE9613963600B707011C85
:1017700093870700B2975CC418C41C404840829706
:101780002285A92E23AA0402B717201023A207E05E
:10179000B240224492444101828013065003B7852F
:1017A000001C9385C5213785001C1305851BEF1090
:1017B000C07A333404C01C40484082972285392EB9
:1017C000D1B7B787001C9387C75493163700BA96D2
:1017D000139636009107B2975CC479BF1306600573
:1017E000B785001C9385C5213785001C1305C51ED0
:1017F000EF10A0762285292E2285CD2461B74111D4
:1018000006C6B74720009387070C03E7070003A627
:1018100041FA5C5A99CBB7472000094798C793868D
:10182000C70383E50600D8C3EDB748DA0945D528D4
:10183000B747200023A0070CB2404101828041112C
:1018400006C622C426C24AC0F32740F19583B3B727
:1018500067F28A07138741FABA9780430329040085
:10186000CA861306B007B785001C9385C52B37853C
:10187000001C13058523EF10406E5C509C43E3AEC3
:10188000F7FF04409C501CC0B1CB1C5423A00700A0
:10189000DC4CA1EB1306F007B785001C9385C52B24
:1018A0003785001C13054527EF10206B832789011E
:1018B00085C313062008B785001C9385C52B378583
:1018C000001C13058529EF10406903258901053F98
:1018D000B240224492440249410182802322040002
:1018E0006DB79C48139437001D8CDC443E942286CF
:1018F0008C440145EFF01FCC228794441306B01BA3
:10190000B785001C9385C52C3785001C1305C5259C
:10191000EF10A06423A4040023A6040023AE040057
:1019200095BF9307F00F63EBA700B707A20193875A
:1019300007103E95120585471CC18280411106C6DD
:10194000B786001C938646343786001C130646373C
:10195000930540043785001C13050530EF10800106
:101960003707201A18430583B33747F62147B306D4
:10197000F7407D57B317F70093C7F7FFED8FB39785
:10198000D7003317D7001347F7FF798ED18FB3B73E
:1019900087EE12053717201A31073A951CC182804D
:1019A0001205B717201AA1073E951C41B3B717C2FD
:1019B00086059989DD8D0CC18280411106C622C43D
:1019C0009307F00F63E8A7022A849317450037179F
:1019D000201A93068700BE96054690C21107BA9753
:1019E00090C38545B53F854522855D3FB240224481
:1019F00041018280B786001C938646343786001CDE
:101A0000130686369305C0023785001C1305053082
:101A1000EF00507673650430828085473395A700C8
:101A200073254530828073507034A1473707201AE0
:101A30002300F7008280B767101A3E950CC18280A0
:101A4000411106C622C4014431A00504FD551315F9
:101A50002400D5379D47E3FA87FEB2402244410176
:101A60008280828093172500138581C43E95B72715
:101A7000001C938727A61CC18280411106C622C480
:101A800026C2AA8401449307700A63C68700228590
:101A9000D13F0504CDBF26850D3781452685EFF062
:101AA0003FF0B2402244924441018280011106CEAF
:101AB0009307703E63CDA70002C621A0B2478507F9
:101AC0003EC6B247E3CCA7FEF24005618280930791
:101AD000803E3355F502EFF07F97FDB7411106C602
:101AE00022C42A84485919C15C5C82978547230225
:101AF000F404B240224441018280411106C62E8581
:101B00007537F377043073900730B240410182801B
:101B1000411106C68145D537B2404101828000009F
:101B2000397106C016C21AC41EC62AC82ECA32CCC3
:101B300036CE3AD03ED242D446D672D876DA7ADC65
:101B40007EDE9382C13C83A2020082928240924256
:101B50002243B2434245D2456246F246025792576B
:101B60002258B258425ED25E625FF25F216173001A
:101B70002030970200009382E24893E212007390B3
:101B800052308280970200009382C24793E2120093
:101B9000739072308280000000000000000000009E
:101BA0000000000000000000000000000000000035
:101BB0000000000000000000000000000000000025
:101BC0000000000000000000000000000000000015
:101BD0000000000000000000000000000000000005
:101BE00000000000000000000000000000000000F5
:101BF00000000000000000000000000000000000E5
:101C000001A001A001A001A001A013000000130089
:101C10000000130000001300000013000000130078
:101C20000000130000001300000013000000130068
:101C30000000130000001300000013000000130058
:101C40000000130000001300000013000000130048
:101FF00000001300000013000000130000000100A7
:102000006FF01FC06FF05FC06FF01FC06FF07FBF39
:102010006FF09FBF6FF05FBF6FF01FBF6FF09FBE8D
:102020006FF09FBE6FF05FBE6FF01FBE6FF0BFBD61
:102030006FF09FBD6FF05FBD6FF01FBD6FF0DFBC35
:102040006FF09FBC6FF05FBC6FF01FBC6FF0DFBB29
:102050006FF09FBB6FF05FBB6FF01FBB6FF0DFBA1D
:102060006FF09FBA6FF05FBA6FF01FBA6FF0DFB911
:102070006FF09FB96FF05FB96FF01FB96FF0DFB805
:102080006FF01FAA6FF0DFA96FF09FA96FF05FA933
:102090000000000000000000000000000000000040
:1020A0000000000000000000000000000000000030
:1020B0000000000000000000000000000000000020
:1020C0000000000000000000000000000000000010
:1023F00000000000000000000000411106C6054575
:10240000EF00005CC1771387870108C393864700FC
:10241000014798C29387470A8CC38280411106C640
:102420003785001C13050538EF003033C17713875B
:10243000070A0C43814614C31385870108411357CB
:10244000A500333787EEB33685EEF1079C4341464E
:102450006307C7024D46630CC714D1476300F72AD0
:10246000C547630DF736C1779386C7017D5798C27C
:1024700093870702454798C3B24041018280A9C2B1
:1024800063A0160663AE360663AC460863AA560A16
:1024900063A7660CE3B276FEC1779386C701014756
:1024A00098C293860702054798C29386470213078E
:1024B000300498C2D107414798C3EFF0BFF46DBF15
:1024C000C1779386C701014798C2938607023707F1
:1024D000020098C2D107314798C3EFF0BFF269BF3D
:1024E000C1779386C701014798C2938607021307F5
:1024F000101098C2D107314798C3EFF0BFF0ADBFBD
:10250000C1779386C701014798C2938607021307D4
:10251000100498C2D107314798C3EFF0BFEEA9BFAE
:10252000C1779386C701014798C2938607021307B4
:10253000100498C2D107314798C3EFF0BFEC2DBF0C
:10254000C1779386C701014798C293860702054762
:1025500098C2D107314798C3EFF0DFEA31BF014796
:10256000C177F10798C383A781FA95E7054723A4AC
:10257000E1FAC177938607020D4798C29386470216
:10258000371714001307173198C2D107414798C372
:10259000EFF05FE7D5B50147C1779386070298C290
:1025A0009386470298C2D107214798C3D5B78DCEED
:1025B00063AC160463A3360863A2460C63A17612CB
:1025C000E3BC86EAC1779386C701014798C2378783
:1025D000001C0327477F9386070298C2D107314723
:1025E00098C3EFF03FE249BDC1779386C701014729
:1025F00098C2938607023707030098C2D107314774
:1026000098C3EFF03FE08DBD0147C1779386C701C6
:1026100098C213860702C166850614C293864702D4
:1026200098C29386870298C29386C70298C2D10740
:10263000614798C3EFF01FDD81B5C1779386C7016D
:10264000014798C2938607023707004098C29386D5
:1026500047021307803E98C205479386870298C2B7
:102660009386C70298C2938607031307100498C283
:10267000D107714798C3EFF0FFD8FDBBC1779386B0
:10268000C701014798C28D461387070214C3054747
:102690001386470218C21386870218C21307401F09
:1026A0001386C70218C20946138807032320C800EF
:1026B000138847032320C8001386870318C2138694
:1026C000C70314C21386070414C29386470498C232
:1026D000D1071307000398C3EFF0DFD271BB417736
:1026E0001306C701814614C25107A14614C3378798
:1026F000001C232AF77EEFF0FFD0BDBB85CE63AB75
:10270000160463A9360663A0460AE3B766D60147F6
:10271000C1779386C70198C2138607029306803E4D
:1027200014C29386470298C2D107414798C3EFF07D
:102730007FCD99B3C1779386C701014798C293862D
:1027400007023707020098C2D107314798C3EFF05C
:102750007FCB1DB3C1779386C701014798C293868B
:1027600007024167050798C2D107314798C3EFF0C8
:102770007FC919B3C1779386C701014798C2938671
:102780000702054798C2938647021307100498C2B0
:10279000938687021307803E98C2D107514798C39A
:1027A000EFF05FC6D1B98146C1771387C70114C363
:1027B000138607020567050718C21387470214C36B
:1027C0001307803E9386870298C29386C70298C2F9
:1027D000D107614798C3EFF0FFC279B98DC663A4F2
:1027E000160463AA3606E3B956C80147C177938633
:1027F000C70198C29386470298C2D107314798C350
:10280000EFF05FC095B9C1779386C701014798C2C1
:10281000938607023707030098C2D107314798C350
:10282000EFF05FBE91B90147C1779386C70198C2A7
:1028300013860702854614C29386470298C2938680
:10284000870298C29386C70298C2D107614798C38E
:10285000EFF05FBB15B1C1779386C701014798C2FE
:10286000938607023707004098C2938647021307F2
:10287000100498C2D107414798C3EFF0BFB8EDBE2E
:10288000411106C63785001C13054539EF00E06C81
:10289000EFF0DFB8B24041018280411106C622C488
:1028A00026C24AC0EFE01FD93785001C1305C53B7F
:1028B000EF00807CC1679387A7FA73907734732702
:1028C0007034735070349307A00A6300F702130644
:1028D000B028B785001C9385053D3785001C13057E
:1028E000853EEF0080670545E1283785001C13050C
:1028F0000540EF006078EFF0CFA7EFF0AFA80549F3
:102900003714201A13078423232027011C43B3C73D
:1029100017C02300F700A1473707201A2300F7004C
:102920001307C4239307A00A1CC39307F00F7390E7
:102930007734B727001C9387A73F23A6F13CEFF01D
:102940006F8D1304442323202401B737001C938781
:10295000078823A6F13C7350703401A073700430D3
:10296000029001A04111194506C6EF00A07A054565
:10297000EFE03FB3B787001C83A7877F4111328800
:1029800006C6AA882E87C8473686630E0800B78712
:10299000001C93878741B785001CC68693858542B6
:1029A0005920EFF03FFC3788001C9307C83F1308FD
:1029B000C83FD5B7AA858146014601456F00F0168C
:1029C0004111B737001C22C406C69387673A2A8490
:1029D00081C78145EF00301DB797001C03A5078014
:1029E0001C5591C382972285EFE0BFAB4111B78799
:1029F000001C22C43784001C1387C7541304C4541A
:102A0000198C26C206C609849384C75411E4B240C7
:102A100022449244410182807D1493172400A6979A
:102A20009C438297E5B739713EDAB787001C32D4F0
:102A30002E86AA8503A5877F36D6341006CE3AD8CF
:102A400042DC46DE36C6AD24F2402161828041116F
:102A5000B787001C22C43784001C1387C754130493
:102A6000C454198C26C24AC006C6098481441389FD
:102A7000C75463978402B787001C3784001C1387F0
:102A8000C7541304C454198C098481441389C7544E
:102A9000639F8400B24022449244024941018280F3
:102AA00093972400CA979C4385048297D9B793973C
:102AB0002400CA979C4385048297D9BFDDC183A7B0
:102AC000C5FF011122CC06CE1384C5FF63D30700D6
:102AD0003E942AC6EFE05FAC83A7C1FA32453A863E
:102AE00091EB2322040023A681FA6244F24005619F
:102AF0006FE07FAB637FF40014403307D40063962C
:102B0000E7009843DC43369718C05CC023A681FADF
:102B1000E9BF3E87DC4399C3E37DF4FE14433306EB
:102B2000D700631F86001040B29614C33306D70047
:102B3000E39DC7FA9043DC43B29614C35CC375B7F8
:102B40006375C400B1471CC14DB71040B306C40043
:102B50006396D7009443DC43B29614C05CC040C374
:102B600069B78280011126CA93843500F1984AC85A
:102B700006CE22CC4EC6A104B1472A8963F5F404DF
:102B8000B14463E4B4044A85EFE01FA103A7C1FA8E
:102B90009386C1FA3A8429E4138401FB1C4091E72F
:102BA00081454A85EF00204E08C0A6854A85EF0082
:102BB000804DFD59631A3507B1472320F9004A8536
:102BC000EFE07F9E31A0E3DE04FAB1472320F90055
:102BD0000145F2406244D2444249B24905618280D3
:102BE0001C40858F63CF07022D466376F6001CC01C
:102BF0003E9404C029A05C40631387029CC24A85AE
:102C0000EFE07F9A1305B4009307440061993307FE
:102C1000F540E300F5FC3A94898F1CC05DBF5CC3AE
:102C2000F9BF2287404085BF130435007198E30245
:102C300085FCB305A4404A85EF00E044E31B35FB67
:102C4000A5BF1C46FD171CC663DA0700184E63C5F6
:102C5000E700A9476394F5006F00C04F1C422E8522
:102C60001387170018C22380B7008280011122CC7D
:102C700026CA4AC84EC652C406CE2A89AE893284B4
:102C8000B304D6007D5A63149400014511A883450E
:102C900004004E864A85EFF0DFFA0504E31545FF90
:102CA000F2406244D2444249B249224A05618280DC
:102CB000717122D526D34AD14ECF06D752CD56CBED
:102CC0005AC95EC762C566C36AC1EEDEAA89AE8410
:102CD0003289368409C51C4D99E3EF003020B7874F
:102CE000001C9387C7486396F40E83A4490083D7DA
:102CF000C400A18B638107109C48638E070E930765
:102D00000002A304F1029307000302D22305F1029B
:102D100022C6930C5002378B001CB78B001C378DDA
:102D2000001C373C001C930A00004A8483470400BF
:102D300099C36398970FB30D2441630E2401EE8667
:102D40004A86A6854E85EFF07FF2FD576306F51E95
:102D50009257EE973ED283470400638F071CFD57BE
:102D60001309140002C802CE3ECA02CCA309010412
:102D700082D4854D83450900154613058B45EF0028
:102D8000903DC2471304190059ED13F7070109C715
:102D900013070002A309E10413F7870009C713070B
:102DA000B002A309E104834609001307A00263856A
:102DB000E608F2474A848146254629450347040030
:102DC00093051400130707FD637DE60AB5CE3ECEDA
:102DD000A5A8B787001C9387C74A6395F40083A40E
:102DE000890031B7B787001C9387C746E391F4F099
:102DF00083A4C900EDBDA6854E85EF000042E30027
:102E000005F07D55BA502A549A540A59FA496A4A2B
:102E1000DA4A4A4BBA4B2A4C9A4C0A4DF65D4D6140
:102E20008280050421B713078B45198D3395AD00BA
:102E3000C98F3EC822893DBF3247930647001843D9
:102E400036C6634907023ACE034704009307E002FF
:102E50006310F706034714009307A002631BF702F1
:102E6000B2470904138747009C433AC663C107026F
:102E70003ECA3DA83307E04093E727003ACE3EC85C
:102E8000E1B7B387A7022E848546BA9705BFFD57E1
:102E9000C5B7050402CA814681472546294503472F
:102EA000040093051400130707FD637FE604E9F2AD
:102EB000834504000D4613850B46EF00D02901CD54
:102EC00093870B461D8D93070004B397A7004245D7
:102ED00005045D8D2AC883450400194613054D4637
:102EE000130914002304B102EF00F02631CD6397DB
:102EF0000A024247B2471377071009CF91073EC62F
:102F00009257D2973ED215B5B387A7022E84854635
:102F1000BA9771B79D07E19BA107D5B778009306D3
:102F2000CCC626860C084E8597000000E7000000FE
:102F3000FD572A8AE316F5FC83D7C40093F70704EC
:102F4000E39107EC12557DBD78009306CCC626862A
:102F50000C084E85EF009032E1BF5D71BEC2B787AD
:102F6000001C22D42A8403A5877F06D62EDA32DC01
:102F700036DEBAC0C2C4C6C619C51C4D89E72AC60A
:102F8000EF00C07532450C455418228636CEEFF05E
:102F90003FD2B250225461618280011126CA4AC8D0
:102FA00006CE22CC4EC652C4AA842E8909C51C4D19
:102FB00099E3EF00A0729C4C804481E72685EF00E6
:102FC000E071B787001C9387C748631CF402C040B8
:102FD0008357C400A18BB1C71C48A1C7FD59294A1A
:102FE0001C4483450900FD17B1E91CC463DE0706D4
:102FF0002286A9452685B92AFD576308F502294589
:1030000035A0B787001C9387C74A6314F400804437
:10301000C1B7B787001C9387C746E31BF4FAC044C7
:1030200045BFA2852685D52A55D97D55F2406244F3
:10303000D2444249B249224A056182801CC4050932
:1030400063D70700184C63CBE700638945011C4038
:103050001387170018C02380B70059B7228626852A
:10306000D528E31F35F7D1B71C401387170018C0C8
:1030700029472380E70061B7B787001CAA8503A50D
:10308000877F6FF09FF1411122C426C22A842E85CA
:1030900006C623A8013CEFE06FCDFD576316F5008F
:1030A00083A7013D91C31CC0B24022449244410118
:1030B0008280011122CC06CEFD472A8463F9B70035
:1030C000D9471CC17D55F2406244056182807C4134
:1030D0002E8691C713972500BA97984319EB22853E
:1030E00032C6BD20AA85228562443246F24005617F
:1030F0000DA885460145E308D7FCFD566316D700A9
:10310000D9471CC00545C1B72E8523A007000297EB
:10311000014555BFB787001CAA8503A5877F6FF0BF
:103120005FF9411122C426C22A842E85B28506C6C3
:1031300023A8013CEFE0EFBBFD576316F50083A722
:10314000013D91C31CC0B24022449244410182809F
:103150006FE06FB9011122CC26CA4AC806CE4EC60E
:10316000AA842E89328409C51C4D99E3EF000057CB
:10317000B787001C9387C748631BF406C0401C4CEC
:103180001CC48357C400A18BD9C31C48C9C31C48A5
:1031900008409379F90F1379F90F1D8D5C48634747
:1031A000F500A2852685EF00404135E51C44050564
:1031B000FD171CC41C401387170018C0238037015B
:1031C0005C486389A7008357C400858B89CBA947D6
:1031D0006317F900A2852685EF00203E0DEDF24031
:1031E0006244D244B2494A85424905618280B78728
:1031F000001C9387C74A6314F400804449B7B7871B
:10320000001C9387C746E31CF4F6C0448DBFA2851B
:10321000268521202DDD7D59D9B74111B787001CA6
:1032200026C283A4877F22C44AC006C62A892E8468
:1032300091C49C4C81E72685EF00404AB787001C6B
:103240009387C7486317F402C0408317C4001397DD
:10325000070193F687004183B5EA9376070195EA63
:1032600025472320E90093E707042316F4007D5542
:1032700045A0B787001C9387C74A6314F4008044B5
:10328000E9B7B787001C9387C746E310F4FCC04436
:103290006DBF118B15C74C5891C9930744046385C2
:1032A000F5004A85EFF09F81232A04028357C4006A
:1032B0002322040093F7B7FD2316F4001C481CC01A
:1032C0008357C40093E787002316F4001C4889EF56
:1032D0008357C4001307002093F707286386E7008D
:1032E000A2854A85EF00005D8317C400139707018C
:1032F00093F6170041839DC2544823240400B3066B
:10330000D04014CC1448014581E61377070821FF0B
:10331000B2402244924402494101828093762700C0
:10332000014691E2504810C4F1BF83A741FBAA882F
:103330008DE3138581EE23AAA1FA1303000093877E
:1033400081EE63080300832700002324F508938798
:1033500081EED8437D487D556346E804638D0802BD
:1033600003A887086300080413152700429510C1BD
:103370000323081005463316E6003363C3002320F9
:1033800068102320D50889466397D8008326481003
:10339000558E2322C810930617000A07D4C3BA9784
:1033A0008CC701458280797152CC56CA5AC862C412
:1033B00006D622D426D24AD04ECE5EC666C2AA8A8D
:1033C0002E8A054C03A441FB938B41FB11C844405A
:1033D000832984081389F4FF8A04A294635F090097
:1033E000B250225492540259F249624AD24A424B94
:1033F000B24B224C924C45618280630E0A00639569
:1034000009007D19F114D9BF93172900CE9783A71E
:103410000708E39847FF5840DC407D1763182703EF
:1034200023222401F9DF832C44006388090083A64A
:10343000091033172C01F98E89EE8297584083A723
:103440000B00E31197F9E30EF4FAADBF23A20400D9
:10345000D1BF93162900CE968C4283A64910758F52
:1034600001E756858297D9BF2E858297C1BF83D742
:10347000C500011122CC26CA06CE4AC84EC613F793
:103480008700AA842E846DE7D8416347E000B841E5
:103490006344E0000145C9A058546DDF03A904004E
:1034A0009396370123A0040063DF0606684883571C
:1034B000C400918B99C75C401D8D5C5899C33C40FA
:1034C0001D8D5C540C502A86814626858297FD57B7
:1034D0000357C400631DF5009440F54763E5D70822
:1034E000B70740208507B3D7D700858BADCF1C48E1
:1034F000232204001CC09317370163D80700FD572F
:103500006314F5009C4091E368C84C5823A0240143
:10351000D1D1930744046385F5002685EFF00FDAD7
:10352000232A040285BF0C50854601462685029752
:10353000FD57E31EF5F69C40BDDB75476385E7004C
:1035400059476395E70023A02401A9B78357C40016
:1035500093E707042316F400F2406244D244424940
:10356000B24905618280136707042316E400EDB7B2
:1035700083A90501E38009F203A905008D8B23A02F
:10358000350133093941014791E3D84918C4E35360
:1035900020F11C540C50CA864E8626858297634AB9
:1035A000A0008357C4007D5593E707042316F40059
:1035B00065B7AA993309A940D9BF9C49A5C3011190
:1035C00022CC06CE2A8411C51C4D81E72EC6392295
:1035D000B245B787001C9387C748639CF5004C40F1
:1035E0008397C5009DC722856244F24005616FF054
:1035F0001FE8B787001C9387C74A6394F5000C4403
:10360000C5B7B787001C9387C746E39BF5FC4C44BE
:10361000C1BFF2406244014505618280014582805C
:10362000411122C406C62A842316B5002317C500FB
:10363000232005002322050023240500232205065C
:1036400023280500232A0500232C05002146814557
:103650001305C505EFD03F95B747001C9387E7CE0C
:103660005CD0B747001C9387E7D11CD4B747001C38
:103670009387C7D65CD4B747001C938727DAB2403C
:1036800000D01CD8224441018280B735001C9385AC
:10369000A55BB1AA411126C2130680069384F5FFEB
:1036A000B384C4024AC02E8922C406C69385440747
:1036B000EFF04FCB2A8401CD2320050023222501E2
:1036C000310508C4138684068145EFD0DF8DB240F2
:1036D0002285224492440249410182801C4DB5E773
:1036E0004111B737001C22C406C69387A7681CD5B2
:1036F000B797001C83A7078023240504232605040D
:10370000232805042A846314F50085471CCD2285EF
:10371000352848C022851D2808C42285052848C4AC
:10372000484001469145EFF0BFEF08440546A545E6
:10373000EFF01FEF48440946C945EFF07FEE85479B
:10374000B2401CCC22444101828082804111B79753
:10375000001C26C283A407804AC006C69C4C22C413
:103760002A8981E72685EFF07FF7938484048044DB
:10377000DC40FD1763D607009C40B9CF8440C5BF2D
:103780000317C40039E7C1778507232204062320E5
:10379000040023220400232404005CC42328040022
:1037A000232A0400232C0400214681451305C40567
:1037B000EFD06FFF232A0402232C040223240404E5
:1037C00023260404B2402285224492440249410146
:1037D00082801304840671BF91454A85EFF09FEB08
:1037E00088C02A8441FDB1472320F900E1BF7971E7
:1037F00022D44AD04ECE52CC5AC85EC606D626D265
:1038000056CA2A892E8A130485048149054BFD5B1B
:103810000444832A4400FD1A63D00A0200406DF874
:10382000B250225492540259624AD24A424BB24B8D
:103830004E85F2494561828083D7C400637BFB00DB
:103840008397E40063877701A6854A85029AB3E9E6
:10385000A90093848406C1B75971CAD02E89839573
:10386000E500A2D4A6D286D63284B68463DC0500F5
:103870008357C90023A0040093F7070895E3930733
:1038800000400DA03000EF00E057E34305FE324753
:10389000BD67F98F7977BA9793B717009CC0C5B702
:1038A00093070004B6501CC026549654065901458F
:1038B0006561828083D7C500011122CC06CE26CA5D
:1038C0004AC8898B2E8489CF930774041CC01CC8F6
:1038D00085475CC8F2406244D24442490561828017
:1038E000740030002A89EFF03FF7A245AA844A8588
:1038F000EFF04FA701ED8317C40013F7072079FB02
:10390000F19B93E727002316F4007DBFB737001C17
:103910009387A7682324F9028357C40008C008C806
:1039200093E707082316F400A2475CC8B24791CF7B
:103930008315E4004A85EF00C04F01C98357C400D6
:10394000F19B93E717002316F4000355C400C98CBC
:103950002316940041B793F5F50F2A966314C5001A
:103960000145828083470500E38DB7FE0505FDB75D
:10397000797152CC9C493A8A984522D426D24ECEAF
:1039800056CA06D64AD05AC85EC6AA892E84B284C0
:10399000B68A63D3E700BA879CC00347340419C3CF
:1039A00085079CC01C4093F7070281C79C4089078C
:1039B0009CC00329040013796900631A0900130BE2
:1039C0009401FD5B5C449840998F634CF9048347F4
:1039D0003404B336F0001C4093F70702A5EB13063E
:1039E0003404D6854E85029AFD576303F5041C40C6
:1039F00011469840998B544481446397C700B3841F
:103A0000E64063D3040081441C4418486354F70023
:103A1000998FBE94014969047D5B63982405014533
:103A200009A885465A86D6854E85029A631E750179
:103A30007D55B250225492540259F249624AD24AF8
:103A4000424BB24B456182800509ADBF3307D400BC
:103A500013060003A301C704034754049387160009
:103A6000A2978906A381E7049DBF85462286D68555
:103A70004E85029AE30E65FB050945B7797122D49C
:103A800026D24AD04ECE06D652CC56CA5AC803C801
:103A9000850193078007AA842E843289B68963EE54
:103AA0000701930720069386350463ED070163053C
:103AB000081C93078005630AF812930A2404230163
:103AC00004050DA89307D8F993F7F70F5546E36659
:103AD000F6FE3786001C8A071306464FB2979C43B2
:103AE00082871C43938A2504938647009C4314C312
:103AF0002381F50485476DA29C41084313F607080E
:103B0000930545000DC21C410CC3B785001C63D84A
:103B100007001307D002B307F040A301E404938524
:103B2000C54C2947A1A013F607041C410CC371DE44
:103B3000C207C187D9BF90411C43137506089385FE
:103B4000470001C50CC39C4339A0137606040CC37F
:103B50007DDA83D70700B785001C1307F00693852D
:103B6000C54C6305E80E2947A3010404504010C466
:103B70006345060008406D9908C099E3B68A19CEDE
:103B8000B68A33F6E702FD1A2E9603460600238016
:103B9000CA003E86B3D7E702E375E6FEA147631E7F
:103BA000F7001C40858B91CB58401C4863C7E70049
:103BB00093070003A38FFAFEFD1AB386564114C87B
:103BC0004E87CA867000A2852685EFF07FDA7D5A7F
:103BD000631C450D7D55B250225492540259F2494E
:103BE000624AD24A424B45618280A3820505B7856D
:103BF000001C9385C54C10400843137806081C41EF
:103C00001105630D080208C31377160001C7136678
:103C1000060210C04147A9FB10401376F6FD10C004
:103C2000A1B79C4193E707029CC193078007B78522
:103C3000001CA302F4049385054E75BF1378060497
:103C400008C3E30308FCC207C1837DBF214729BF26
:103C500090411C43CC49137806081385470063063E
:103C6000080008C39C438CC301A808C3137606044C
:103C70009C4375DA2390B70023280400B68A89B7DD
:103C80001C43D04181459386470014C383AA070093
:103C90005685EFF05FCC01C53305554148C05C4007
:103CA0001CC8A301040429BF14485686CA8526856A
:103CB0008299E30145F31C40898B8DE7B247484464
:103CC000E35BF5F03E8501BF85465686CA852685AD
:103CD0008299E30165F1050A5C443247998FE34517
:103CE000FAFEE9BF014A930A94017D5BF5B74111E1
:103CF00022C42E848395E50006C6512A6349050037
:103D00007C48AA977CC8B2402244410182808357F4
:103D1000C4007D777D17F98F2316F400EDB783D7A4
:103D2000C500011122CC26CA4AC84EC606CE93F75A
:103D30000710AA842E843289B68991C78395E5003D
:103D400089460146292A8357C4007D777D17F98F5C
:103D50008315E4002316F4006244F240CE864A86BE
:103D6000B24942492685D24405613DA8411122C489
:103D70002E848395E50006C6DD20FD570357C40059
:103D8000631BF500FD77FD17F98F2316F400B24091
:103D90002244410182808567D98F2316F40068C8C8
:103DA000FDB78395E5000DA8411122C426C22A84DF
:103DB0002E85B285368606C623A8013CEFD08FF447
:103DC000FD576316F50083A7013D91C31CC0B240A7
:103DD0002244924441018280411122C426C22A8495
:103DE0002E8506C623A8013CEFD06FEBFD57631666
:103DF000F50083A7013D91C31CC0B2402244924408
:103E000041018280411122C426C22A842E85B285B6
:103E100006C623A8013CEFD08FECFD576316F500D2
:103E200083A7013D91C31CC0B2402244924441018A
:103E30008280411122C426C22A842E8506C623A868
:103E4000013CEFD08FEAFD576316F50083A7013DD3
:103E500091C31CC0B240224492444101828041116E
:103E600022C426C22A842E85B285368606C623A899
:103E7000013CEFD0AFE8FD576316F50083A7013D85
:103E800091C31CC0B240224492444101828041113E
:103E900022C426C22A842E85B285368606C623A869
:103EA000013CEFD0EFE5FD576316F50083A7013D18
:103EB00091C31CC0B2402244924441018280000060
:10800000785461736B0000002F736372617463684E
:108010002F6164656C7665636368696F2F636F6E4B
:1080200074726F6C2D70756C702D6F70656E2F7320
:10803000772F6672656572746F732F6B65726E65EC
:108040006C2F7461736B732E63000000282028204E
:1080500028202820707844656C61796564546173C8
:108060006B4C69737420292D3E75784E756D626571
:10807000724F664974656D73203D3D20282055423E
:10808000617365547970655F742029203020292040
:108090003F202820282042617365547970655F7401
:1080A000202920312029203A2028202820426173CD
:1080B00065547970655F742029203020292029209B
:1080C0002900000028202820262820707852656189
:1080D00064795461736B734C697374735B20757846
:1080E000546F705072696F72697479205D20292015
:1080F000292D3E75784E756D6265724F66497465BF
:108100006D732029203E20300000000075785363F5
:10811000686564756C657253757370656E646564CB
:10812000203D3D203000000075785363686564751C
:108130006C657253757370656E6465640000000051
:10814000765461736B44656C617900007854617397
:108150006B526573756D65416C6C0000785461738A
:108160006B496E6372656D656E745469636B000074
:10817000765461736B537769746368436F6E74658B
:108180007874000025733A25643A20656E74657230
:1081900020636C206E6F74696669636174696F6EC9
:1081A00020746F206663206576656E742068616E4A
:1081B000646C6572200A0D0025733A25643A206CC0
:1081C000696768742063616C6C6261636B200A0D7F
:1081D0000000000025733A25643A2069727120631B
:1081E000616C6C6261636B200A0D000025733A2597
:1081F000643A20707573682070695F7461736B20D6
:1082000063616C6C6261636B20746F206576656E70
:1082100074206B65726E656C200A0D00636C5F6E76
:108220006F746966795F66635F6576656E745F68B3
:10823000616E646C6572000025733A25643A2063B0
:108240006C5F7461736B5F66696E6973683A207402
:1082500061736B3D25700A0D0000000025733A25FF
:10826000643A206672656520257020256C640A0DCD
:108270000000000025733A25643A20636C5F706F3C
:10828000705F636C75737465725F7461736B206487
:108290006F6E650A0D00000025733A25643A20735D
:1082A000656E64206E6F74696669636174696F6E70
:1082B00020746F2066630A0D00000000636C5F7419
:1082C00061736B5F66696E6973680000636C5F70F1
:1082D0006F705F636C75737465725F7461736B004C
:1082E00030203C3D206964202626206964203C2003
:1082F0004953525F5441424C455F53495A4500002F
:108300002F736372617463682F6164656C76656353
:108310006368696F2F636F6E74726F6C2D70756C0C
:10832000702D6F70656E2F73772F6672656572742E
:108330006F732F647269766572732F636C69632E35
:108340006300000030203C3D20696420262620691F
:1083500064203C20434C49435F504152414D5F4EA5
:10836000554D5F53524300006972715F656E6162E3
:108370006C6500006972715F70656E6400000000DA
:1083800063616C6C65655F73636D695F68616E6482
:108390006C657200736F6D656F6E652077726F74B8
:1083A0006520746F206D61696C626F782120507256
:1083B000656368617267656420465700746573740D
:1083C000206373722061636365737365730D0000CE
:1083D000636C69632D6D626F782D70732D667265A5
:1083E0006572746F732E630025733A25643A2061B9
:1083F0007373657274206572726F720A00000000F8
:1084000073657420757020766563746F7220746173
:10841000626C650D000000002C2066756E63746947
:108420006F6E3A2000000000617373657274696FAB
:108430006E2022257322206661696C65643A20668D
:10844000696C6520222573222C206C696E652025BD
:1084500064257325730A0000232D302B20000000B3
:10846000686C4C00656667454647000000000000E8
:1084700000000000000000000000000000000000FC
:1084800000000000000000000000000000000000EC
:1084900000000000000000000000000000000000DC
:1084A00000000000000000000000000000000000CC
:1084B00000000000000000000000000000000000BC
:1084C00000000000000000000000000030313233E6
:1084D00034353637383941424344454600000000C0
:1084E000303132333435363738396162636465662A
:1084F00000000000E23A001CF83A001CBA3A001CE6
:10850000BA3A001CBA3A001CBA3A001CF83A001CED
:10851000BA3A001CBA3A001CBA3A001CBA3A001C1B
:10852000503C001C363B001C223C001CBA3A001C8C
:10853000BA3A001C803C001CBA3A001C363B001CB6
:0C854000BA3A001CBA3A001C2A3C001C8D
:10854C00FFFFFFFF00000000000000000000000023
:10855C00000000000000000000000000000000000F
:10856C0000000000000000000000000000000000FF
:10857C0000000000000000000000000000000000EF
:10858C0000000000000000000000000000000000DF
:10878C0000000000000000008C84001CAC84001C65
:10879C006C84001C000000000000000000000000C1
:1087AC0000000000000000000000000000000000BD
:1087BC0000000000000000000000000000000000AD
:1087CC00000000000000000000000000000000009D
:1087DC00000000000000000000000000000000008D
:1087EC00000000002091001C010000009087001C7C
:0887FC0020D9001C9087001C2D
:10912000000000000000000000000000000000003F
:10913000000000000000000000000000000000002F
:10914000000000000000000000000000000000001F
:10915000000000000000000000000000000000000F
:020000041C01DD
:040000051C00088053
:00000001FF
