:020000041C00DE
:100400006F0000506F00C04F6F00804F6F00404F73
:100410006F00004F6F00C04E6F00804E6F00404E67
:100420006F00004E6F00C04D6F00804D6F00404D5B
:100430006F00004D6F00C04C6F00804C6F00404C4F
:100440006F00004C6F00C04B6F00804B6F00404B43
:100450006F00004B6F00C04A6F00804A6F00404A37
:100460006F00004A6F00C0496F0080496F0040492B
:100470006F0000496F00C0486F0080486F0040481F
:100480006F0000486F00C0476F0080476F00404713
:100490006F0000476F00C0466F0080466F00404607
:1004A0006F0000466F00C0456F0080456F004045FB
:1004B0006F0000456F00C0446F0080446F004044EF
:1004C0006F0000446F00C0436F0080436F004043E3
:1004D0006F0000436F00C0426F0080426F004042D7
:1004E0006F0000426F00C0416F0080416F004041CB
:1004F0006F0000416F00C0406F0080406F004040BF
:100500006F0000406F00C03F6F00803F6F00403FB2
:100510006F00003F6F00C03E6F00803E6F00403EA6
:100520006F00003E6F00C03D6F00803D6F00403D9A
:100530006F00003D6F00C03C6F00803C6F00403C8E
:100540006F00003C6F00C03B6F00803B6F00403B82
:100550006F00003B6F00C03A6F00803A6F00403A76
:100560006F00003A6F00C0396F0080396F0040396A
:100570006F0000396F00C0386F0080386F0040385E
:100580006F0000386F00C0376F0080376F00403752
:100590006F0000376F00C0366F0080366F00403646
:1005A0006F0000366F00C0356F0080356F0040353A
:1005B0006F0000356F00C0346F0080346F0040342E
:1005C0006F0000346F00C0336F0080336F00403322
:1005D0006F0000336F00C0326F0080326F00403216
:1005E0006F0000326F00C0316F0080316F0040310A
:1005F0006F0000316F00C0306F0080306F004030FE
:100600006F0000306F00C02F6F00802F6F00402FF1
:100610006F00002F6F00C02E6F00802E6F00402EE5
:100620006F00002E6F00C02D6F00802D6F00402DD9
:100630006F00002D6F00C02C6F00802C6F00402CCD
:100640006F00002C6F00C02B6F00802B6F00402BC1
:100650006F00002B6F00C02A6F00802A6F00402AB5
:100660006F00002A6F00C0296F0080296F004029A9
:100670006F0000296F00C0286F0080286F0040289D
:100680006F0000286F00C0276F0080276F00402791
:100690006F0000276F00C0266F0080266F00402685
:1006A0006F0000266F00C0256F0080256F00402579
:1006B0006F0000256F00C0246F0080246F0040246D
:1006C0006F0000246F00C0236F0080236F00402361
:1006D0006F0000236F00C0226F0080226F00402255
:1006E0006F0000226F00C0216F0080216F00402149
:1006F0006F0000216F00C0206F0080206F0040203D
:100700006F0000206F00C01F6F00801F6F00401F30
:100710006F00001F6F00C01E6F00801E6F00401E24
:100720006F00001E6F00C01D6F00801D6F00401D18
:100730006F00001D6F00C01C6F00801C6F00401C0C
:100740006F00001C6F00C01B6F00801B6F00401B00
:100750006F00001B6F00C01A6F00801A6F00401AF4
:100760006F00001A6F00C0196F0080196F004019E8
:100770006F0000196F00C0186F0080186F004018DC
:100780006F0000186F00C0176F0080176F004017D0
:100790006F0000176F00C0166F0080166F004016C4
:1007A0006F0000166F00C0156F0080156F004015B8
:1007B0006F0000156F00C0146F0080146F004014AC
:1007C0006F0000146F00C0136F0080136F004013A0
:1007D0006F0000136F00C0126F0080126F00401294
:1007E0006F0000126F00C0116F0080116F00401188
:1007F0006F0000116F00C0106F0080106F0040107C
:10088000978100009381014D732540F19375F50127
:1008900015817D466304A6006F00A05A17D10000A1
:1008A000130141B8170500001305C5B51365150000
:1008B000731055307310753097820000938282D088
:1008C000138301ED23A002009102E3ED62FE1725E0
:1008D00000001305E594EF10F010EF10501A0245D8
:1008E0004C000146EF1080746F1090108280000061
:1008F00000000000000000000000000000000000F8
:10090000130181F806C216C41AC61EC822CA26CC14
:100910002ACE2ED032D236D43AD63ED842DA46DC6F
:100920004ADECEC0D2C2D6C4DAC6DEC8E2CAE6CC3F
:10093000EACEEED0F2D2F6D4FAD6FED8F3220030C8
:1009400096DA2111F322008073231080F323208094
:10095000732E4080F32E5080732F608016C21AC40D
:100960001EC672C876CA7ACC9782000083A2C2E5FE
:1009700023A0220073252034F32510341356F501EB
:1009800009CA2EC017810000032141C3EF00B04106
:100990000DA891052EC0AD421375F57F6319550062
:1009A00017810000032181C1EF00407E19A8F322C6
:1009B000203473231034F3230030D5BFF3222034C6
:1009C000F5BF17830000032323E0032103008242C5
:1009D0007390123492422243B243424ED24E624F3F
:1009E00073900280731013807390238073104E8075
:1009F00073905E8073106F806101D65273900230E5
:100A00009240A2423243C2435244E244724582556C
:100A10001256A2563257C2575258E2587259864956
:100A2000164AA64A364BC64B564CE64C764D865D6A
:100A3000165EA65E365FC65F130181077300203025
:100A4000130000001300000013000000130000005A
:100A5000130000001300000013000000130000004A
:100A6000130000001300000013000000130000003A
:100A7000130000001300000013000000130000002A
:100A8000130000001300000013000000130000001A
:100A9000130000001300000013000000130000000A
:100AA00013000000130000001300000013000000FA
:100AB00013000000130000001300000013000000EA
:100AC00013000000130000001300000013000000DA
:100AD00013000000130000001300000013000000CA
:100AE00013000000130000001300000013000000BA
:100AF00013000000130000001300000013000000AA
:100B0000130181F806C216C41AC61EC822CA26CC12
:100B10002ACE2ED032D236D43AD63ED842DA46DC6D
:100B20004ADECEC0D2C2D6C4DAC6DEC8E2CAE6CC3D
:100B3000EACEEED0F2D2F6D4FAD6FED8F3220030C6
:100B400096DA2111F322008073231080F323208092
:100B5000732E4080F32E5080732F608016C21AC40B
:100B60001EC672C876CA7ACC9782000083A2C2C51C
:100B700023A0220073252034F32510342EC01781C2
:100B800000000321A1A3EF002048E30C05E2EF00E1
:100B9000E05F17830000032323C303210300824285
:100BA0007390123492422243B243424ED24E624F6D
:100BB00073900280731013807390238073104E80A3
:100BC00073905E8073106F806101D6527390023013
:100BD0009240A2423243C2435244E244724582559B
:100BE0001256A2563257C2575258E2587259864985
:100BF000164AA64A364BC64B564CE64C764D865D99
:100C0000165EA65E365FC65F130181077300203053
:100C10001300000013000000130000001300000088
:100C20001300000013000000130000001300000078
:100C30001300000013000000130000001300000068
:100C40001300000013000000130000001300000058
:100C50001300000013000000130000001300000048
:100C60001300000013000000130000001300000038
:100C70001300000013000000130000001300000028
:100C80001300000013000000130000001300000018
:100C90001300000013000000130000001300000008
:100CA00013000000130000001300000013000000F8
:100CB00013000000130000001300000013000000E8
:100CC00013000000130000001300000013000000D8
:100CD00013000000130000001300000013000000C8
:100CE00013000000130000001300000013000000B8
:100CF00013000000130000001300000013000000A8
:100D000017810000032141AC0241824092422243FC
:100D1000B243424ED24E624F7390028073101380E2
:100D20007390238073104E8073905E8073106F8079
:100D300061013243C2435244E24472458255125625
:100D4000A2563257C2575258E25872598649164A2B
:100D5000A64A364BC64B564CE64C764D865D165E23
:100D6000A65E365FC65FD652A10273900230A242E1
:100D7000130181078280130000001300000013009C
:100D80000000130000001300000013000000130017
:100D90000000130000001300000013000000130007
:100DA00000001300000013000000130000001300F7
:100DB00000001300000013000000130000001300E7
:100DC00000001300000013000000130000001300D7
:100DD00000001300000013000000130000001300C7
:100DE00000001300000013000000130000001300B7
:100DF00000001300000013000000130000000100B9
:100E0000F322003093F272FF130380181203B3E24F
:100E10006200711523205500130585FA10C12115B4
:100E200023200500930260006387020071152320D0
:100E30000500FD12D5BF71150CC1828000000000B5
:100E40000000336DB000B70207000143054E37497B
:100E50002000130909209303000237442000338E39
:100E6000C303B744200093840408B30BC9012324AF
:100E700054006396650A93020020170C0000130CBF
:100E8000EC0D232A54008949178A0000130ACA96D8
:100E9000136C1C0073500430832A0A00638A0A060C
:100EA000970000009380600603AB0A0063020B0604
:100EB00083220B0003254B0003238B008323CB00ED
:100EC000032E0B01832E4B0133017300032F4B02C2
:100ED0003363010013661F0063060F002320E9013E
:100EE0002326E90123A0CB0023A6CB00934F1F00AC
:100EF000638A0E0023A2F40123A0840123A06400CE
:100F000023A0C401828233655001EF00E06F49BF26
:100F1000232434018362C4032322340151B7170A06
:100F20000000130A6A01970A0000938A2A01B3603D
:100F3000400119A083E2CB0183E2040003E5040031
:100F400013F31200B3B202C063150300B360400193
:100F50008282B3605001828283E20400B382A203E2
:100F60003301550082802A8309CA83830500230048
:100F700073007D16050385056DFA82802A8311C6EC
:100F80002300B3007D16050365FE82805C41DCC151
:100F9000984798C54CC38CC788C91C4185071CC19C
:100FA00082801C495441184598C6544154C3D843C3
:100FB0006309A7002328050098437D1798C3884339
:100FC00082801845D8C3FDB7B787001C83A7877CEC
:100FD0009C4399E7B787001C7D5723AEE77C82804E
:100FE000B787001C83A7877CDC47DC47D843B787DB
:100FF000001C23AEE77C8280B787001C9387477D67
:101000009843050798C38280011106CE22CC26CAD8
:101010004AC84EC6B787001C83A7477D639B071449
:10102000B787001C9387C77E8443850484C39DE8EB
:10103000B787001C83A7877C9C43D1E33787001CBC
:101040001307877C1443B787001C9387C77C9043A2
:1010500010C394C3B787001C9387077E9843050786
:1010600098C39D37B787001C83A7C77D63F3F40E31
:101070000149B787001C83A7477CDC5713972700DB
:101080003E9793162700B787001C9387075CB69797
:101090009843854763F3E7000549B787001C83A79A
:1010A000477EE9C7B787001C83A7077FF1EF4A8512
:1010B000F2406244D2444249B24905618280B78617
:1010C000001C9386C6043786001C130646138565EC
:1010D000938595AA3785001C13058500EF10A00C99
:1010E0000549B787001C83A7877C9C43ADC7B7879A
:1010F000001C83A7877CDC47C0475C4063E3F406A1
:10110000930944004E85713D1C5481C71305840129
:10111000493D54548547B397D7003787001C1307C0
:10112000877D1043D18F1CC393972600B6971395E4
:101130002700CE85B787001C9387075C3E95B9359D
:101140005854B787001C83A7477CDC57E37AF7F82D
:1011500049BF014979B7B787001C7D5723AEE77CAB
:1011600009BF3787001C232EF77C21B7EF108002C0
:1011700015BFB787001C9387477E9843050798C320
:10118000EF104001014925B7054915B7B787001C85
:1011900083A7477D99C7B787001C054723A8E77E2B
:1011A0008280411106C6B787001C23A8077EB78737
:1011B000001C83A7477C985B1443B7A7A5A593871A
:1011C000575A6399F6005443B7A7A5A59387575A72
:1011D0006389F608B787001C9387477C88438C4354
:1011E00093854503EF009079B787001C03A7877D9F
:1011F0003317071093162700BA9613962600B78761
:10120000001C9387075CB2979C43BDCB93162700C5
:10121000BA9613962600B787001C9387075CB2978F
:10122000D443D442D4C3A107638DF6069317270095
:101230003E9793162700B787001C9387075CB697E5
:10124000DC43D847B787001C9387477C98C39C43EF
:10125000938787053787001C232AF75AB24041013C
:1012600082801447B7A7A5A59387575AE394F6F64B
:101270005847B7A7A5A59387575AE31DF7F4ADB70D
:10128000B786001C9386460C3786001C130686140E
:101290008565938515BE3785001C13058500EF0015
:1012A0009070CC42B787001C9387075CB297CCC381
:1012B000B5BF73700430B787001C83A7877E91CBBE
:1012C000B787001C9387477C9443F8420507F8C210
:1012D0009C438280B787001C83A7877E85C7B7871A
:1012E000001C83A7477CFC4391CFB787001C9387E2
:1012F000477C9443F8427D17F8C29C43FC4399E332
:10130000736004308280411106C622C426C2B787AA
:10131000001C83A7477D9DC3693FB787001C938747
:10132000477D98437D1798C39C436395070EB78705
:10133000001C83A7077D85E70144F1A8B786001C40
:101340009386C6103786001C130646128565938562
:1013500095893785001C13058500EF00D064014492
:10136000B787001C83A74762ADC7B787001C938768
:101370004762DC47C04713058401EFF09FC2930426
:1013800044002685EFF0FFC1485405473317A700F6
:10139000B786001C9386867D9C425D8F98C293170A
:1013A0002500AA978A07A6853785001C1305055CCA
:1013B0003E95EFF0BFBD5854B787001C83A7477C0C
:1013C000DC57E36FF7F8B787001C054723A8E77ED3
:1013D00041BF19C0EFF05FBFB787001C03A4477E71
:1013E00001ECB787001C03A4077F15C4730000003D
:1013F000054415A07D1411C8EFF01FC165DDB78746
:10140000001C054723A8E77EF5B7B787001C23A279
:10141000077EC1BF01447D3D2285B24022449244F3
:10142000410182807D55828041112A87B727101A99
:10143000938787099C43C18BF5FB02C621A0B24765
:1014400085073EC6B24685679387F7BFE3D9D7FEC7
:10145000B347F7C13747101A1307070A1CC37300B5
:101460005010F5BF8967DCC1014582800545828047
:101470007D15133515008280594723A6E1EC7D5573
:1014800082800145828001458280411106C622C4C6
:1014900026C24AC0B2847D15854763E6A704B727F4
:1014A000101A938787099C43C18BF5FB1304001026
:1014B00033D484043785001C130985632286130501
:1014C0008563EFF05FAAB727101A9387070823A850
:1014D0002701C4CB414798CF2285B2402244924491
:1014E0000249410182801307800523A6E1EC7D5566
:1014F000EDB7AA873787001C0325075BAA9737D764
:10150000001C130707C263F7E7003787001C232876
:10151000F75A8280314723A6E1EC7D558280411144
:1015200006C6EFF07FADB24041018280411106C690
:10153000D93BB24041018280411106C622C4737476
:1015400004303795001C13050581392073100430D1
:10155000B2402244410182801C411D06333606C43C
:10156000014791C763F5B7003E87DC43DDBFB38613
:10157000C500638CF60090C1DCC105C71C43B306EF
:10158000F700638AB6004CC382809443369690C1BC
:10159000DC43DCC1DDB79441B6971CC3DC415CC3BE
:1015A00082800CC18280411106C69377F50F379572
:1015B000001C8A07130585813E951C418297B24025
:1015C00041018280411106C6B74720009387070C6E
:1015D00003E70700B787001C03A6477F5C5A99CB37
:1015E000B7472000094798C79386C70383E50600DD
:1015F000D8C3EDB748DA0945DD28B747200023A056
:10160000070CB24041018280411106C622C426C2A5
:101610004AC0F32740F19583B3B767F28A0737874B
:10162000001C1307477FBA97804303290400CA862A
:101630001306B007B785001C9385051E3785001C6F
:101640001305C515EF10E0145C509C43E3AEF7FFA3
:1016500004409C501CC0B1CB1C5423A00700DC4CA0
:10166000A1EB1306F007B785001C9385051E37858F
:10167000001C13058519EF10C0118327890185C34C
:1016800013062008B785001C9385051E3785001CAE
:101690001305C51BEF10E00F032589012537B24064
:1016A00022449244024941018280232204006DB702
:1016B0009C48139437001D8CDC443E9422868C4455
:1016C00001459D3D228794441306B01BB785001C3D
:1016D0009385051F3785001C13050518EF10600B57
:1016E00023A4040023A6040023AE04009DBF930797
:1016F000F00F63EBA700B707A201938707103E9591
:10170000120585471CC18280411106C6B786001CA0
:10171000938686263786001C1306C6289305400448
:101720003785001C13054522EF00F027000000005C
:10173000397106C016C21AC41EC62AC82ECA32CCB7
:1017400036CE3AD03ED242D446D672D876DA7ADC59
:101750007EDE938281EC83A20200829282409242DA
:101760002243B2434245D2456246F246025792575F
:101770002258B258425ED25E625FF25F216173000E
:101780002030970200009382E24793E212007390A8
:1017900052308280970200009382C24693E2120088
:1017A0007390723082800000000000000000000092
:1017B0000000000000000000000000000000000029
:1017C0000000000000000000000000000000000019
:1017D0000000000000000000000000000000000009
:1017E00000000000000000000000000000000000F9
:1017F00000000000000000000000000000000000E9
:1018000001A001A001A001A001A01300000013008D
:10181000000013000000130000001300000013007C
:10182000000013000000130000001300000013006C
:10183000000013000000130000001300000013005C
:10184000000013000000130000001300000013004C
:101BF00000001300000013000000130000000100AB
:101C00006FF01FC06FF05FC06FF01FC06FF07FBF3D
:101C10006FF09FBF6FF05FBF6FF01FBF6FF09FBE91
:101C20006FF09FBE6FF05FBE6FF01FBE6FF0BFBD65
:101C30006FF09FBD6FF05FBD6FF01FBD6FF0DFBC39
:101C40006FF09FBC6FF05FBC6FF01FBC6FF0DFBB2D
:101C50006FF09FBB6FF05FBB6FF01FBB6FF0DFBA21
:101C60006FF09FBA6FF05FBA6FF01FBA6FF0DFB915
:101C70006FF09FB96FF05FB96FF01FB96FF0DFB809
:101C80006FF01FAB0000000000000000000000002B
:101C90000000000000000000000000000000000044
:101CA0000000000000000000000000000000000034
:101CB0000000000000000000000000000000000024
:101CC0000000000000000000000000000000000014
:101FF00000000000000000000000411106C6378507
:10200000001C13058529EF00900A0147C1779387CB
:10201000070A98C30145E92A411106C63785001C05
:102020001305852AEF00B0080545D922011106CE17
:1020300022CC26CA4AC83785001C1305452BEF0061
:102040001007C1679387A7FA7390773473277034AA
:10205000735070349307A00A631AF70C3785001C7D
:102060001305852CEF00B004EFF0AFF1EFF08FF225
:102070003785001C1305C52DEF0070030549371483
:10208000201A9304841F23A024013785001C130504
:10209000452EEF00D0019C40B3C717C02380F40049
:1020A0003785001C13058530EF0070001307041FEF
:1020B00085472300F7003785001C1305C532EF0064
:1020C000007FA1473707201A2300F7003785001C3F
:1020D00013058533EF00A07D1307C41F9307A00AE3
:1020E0001CC33785001C1305C535EF00407C9307E2
:1020F000F00F73907734B727001C9387870123A4D0
:10210000F1EC3785001C1305C539EF00407A130444
:10211000441F2320240102C4224789679387F77054
:1021200063C8E700A24785073EC4FDB70545C9203F
:102130003785001C1305053BEF006077B727001CAF
:102140009387A7FF23A4F1EC7350703402C621A03B
:10215000B24785073EC6324789679387F770E3D950
:10216000E7FE3785001C1305C53EEF0040740545AA
:10217000F2406244D244424905618280411106C660
:10218000737004303785001C13054540EF00606014
:10219000029001A082804111194506C6EF00C07A65
:1021A0000545EFF06FA8B787001C83A7475B411177
:1021B000328806C6AA882E87C8473686630D08006F
:1021C000B787001C9387C741B785001CC6869385D7
:1021D000C5425120C9373788001C9307C81D130812
:1021E000C81DDDB7AA858146014601456F0010175D
:1021F0004111B737001C22C406C6938707BE2A8444
:1022000081C78145EF00D01DB787001C03A5C75BC0
:102210001C5591C382972285EFF00FA14111B7871A
:10222000001C22C43784001C13870755130404556F
:10223000198C26C206C609849384075511E4B2405E
:1022400022449244410182807D1493172400A69772
:102250009C438297E5B739713EDAB787001C32D4C8
:102260002E86AA8503A5475B36D6341006CE3AD80B
:1022700042DC46DE36C6952CF24021618280411157
:10228000B787001C22C43784001C1387075513042A
:102290000455198C26C24AC006C609848144138994
:1022A000075563978402B787001C3784001C138787
:1022B000075513040455198C098481441389075563
:1022C000639F8400B24022449244024941018280CB
:1022D00093972400CA979C4385048297D9B7939714
:1022E0002400CA979C4385048297D9BFCDC583A794
:1022F000C5FF011122CC06CE1384C5FF63D30700AE
:102300003E942AC6EFF0AFA13787001C8327877F52
:1023100032453A8691EB23220400232C877E6244C7
:10232000F24005616FF08FA0637FF4001440330723
:10233000D4006396E7009843DC43369718C05CC02E
:10234000232C867EE9BF3E87DC4399C3E37DF4FE00
:1023500014433306D700631F86001040B29614C39F
:102360003306D700E39DC7FA9043DC43B29614C30B
:102370005CC375B76375C400B1471CC14DB710404D
:10238000B306C4006396D7009443DC43B29614C0EE
:102390005CC040C369B78280011126CA93843500AE
:1023A000F1984AC806CE22CC4EC6A104B1472A896C
:1023B00063F9F404B14463E8B4044A85EFF02F965E
:1023C000B787001C03A7877F9386877F3A8439E409
:1023D0003784001C1304C47F1C4091E781454A8563
:1023E000EF00A04D08C0A6854A85EF00004DFD59BD
:1023F000631A3507B1472320F9004A85EFF00F93A0
:1024000031A0E3DA04FAB1472320F9000145F24094
:102410006244D2444249B249056182801C40858FA2
:1024200063CF07022D466376F6001CC03E9404C0BD
:1024300029A05C40631387029CC24A85EFF00F8F8E
:102440001305B4009307440061993307F540E30096
:10245000F5FC3A94898F1CC05DBF5CC3F9BF22872D
:102460004040B5B7130435007198E30285FCB3050D
:10247000A4404A85EF006044E31B35FBA5BF1C4622
:10248000FD171CC663DA0700184E63C5E700A947AD
:102490006394F5006F00204F1C422E8513871700B0
:1024A00018C22380B7008280011122CC26CA4AC8F4
:1024B0004EC652C406CE2A89AE893284B304D600F1
:1024C0007D5A63149400014509A8834504004E8693
:1024D0004A8575370504E31645FFF2406244D2444D
:1024E0004249B249224A05618280717122D526D3C0
:1024F0004AD14ECF06D752CD56CB5AC95EC762C518
:1025000066C36AC1EEDEAA89AE843289368409C503
:102510001C4D99E3EF005020B787001C93870749B3
:102520006395F40E83A4490083D7C400A18B638014
:1025300007109C48638D070E93070002A304F10265
:102540009307000302D22305F10222C6930C500226
:10255000378B001CB78B001C378D001C372C001CE0
:10256000930A00004A848347040099C36397970F36
:10257000B30D2441630D2401EE864A86A6854E855F
:102580002537FD576306F51E9257EE973ED28347D7
:102590000400638F071CFD571309140002C802CE04
:1025A0003ECA02CCA309010482D4854D83450900AB
:1025B00015461305CB45EF00103DC2471304190023
:1025C00059ED13F7070109C713070002A309E10436
:1025D00013F7870009C71307B002A309E104834674
:1025E00009001307A0026385E608F2474A84814682
:1025F000254629450347040093051400130707FDEA
:10260000637DE60AB5CE3ECEA5A8B787001C9387AA
:10261000074B6395F40083A4890039B7B787001C82
:1026200093870747E392F4F083A4C900F5BDA6851C
:102630004E85EF00A041E30105F07D55BA502A54C4
:102640009A540A59FA496A4ADA4A4A4BBA4B2A4C0E
:102650009A4C0A4DF65D4D618280050429B7130737
:10266000CB45198D3395AD00C98F3EC822893DBF3A
:10267000324793064700184336C6634907023ACEED
:10268000034704009307E0026310F70603471400B2
:102690009307A002631BF702B247090413874700A0
:1026A0009C433AC663C107023ECA3DA83307E040D7
:1026B00093E727003ACE3EC8E1B7B387A7022E843E
:1026C0008546BA9705BFFD57C5B7050402CA8146BE
:1026D0008147254629450347040093051400130745
:1026E00007FD637FE604E9F2834504000D46138588
:1026F0004B46EF00502901CD93874B461D8D930724
:102700000004B397A700424505045D8D2AC88345A0
:102710000400194613058D46130914002304B10261
:10272000EF00702631CD63970A024247B247137714
:10273000071009CF91073EC69257D2973ED21DB5DA
:10274000B387A7022E848546BA9771B79D07E19B90
:10275000A107D5B7780093068C4A26860C084E85CB
:1027600097000000E7000000FD572A8AE316F5FCF9
:1027700083D7C40093F70704E39107EC12557DBD9E
:10278000780093068C4A26860C084E85EF0010329E
:10279000E1BF5D71BEC2B787001C22D42A8403A5A5
:1027A000475B06D62EDA32DC36DEBAC0C2C4C6C6F5
:1027B00019C51C4D89E72AC6EF00007632450C4545
:1027C0005418228636CE1533B2502254616182806D
:1027D000011126CA4AC806CE22CC4EC652C4AA84CB
:1027E0002E8909C51C4D99E3EF0000739C4C804471
:1027F00081E72685EF004072B787001C9387074961
:10280000631CF402C0408357C400A18BB1C71C48AD
:10281000A1C7FD59294A1C4483450900FD17B1E9A8
:102820001CC463DE07062286A9452685A92AFD5712
:102830006308F502294535A0B787001C9387074B2D
:102840006314F4008044C1B7B787001C938707471F
:10285000E31BF4FAC04445BFA2852685C52A55D995
:102860007D55F2406244D2444249B249224A056150
:1028700082801CC4050963D70700184C63CBE700AE
:10288000638945011C401387170018C02380B700D7
:1028900059B722862685C528E31F35F7D1B71C40D6
:1028A0001387170018C029472380E70061B7B7874F
:1028B000001CAA8503A5475B21BF411122C426C283
:1028C0002A842E8506C623A601ECEFE09FC2FD57A1
:1028D0006316F50083A7C1EC91C31CC0B24022442B
:1028E000924441018280011122CC06CEFD472A8408
:1028F00063F9B700D9471CC17D55F24062440561B8
:1029000082807C412E8691C713972500BA97984301
:1029100019EB228532C6B520AA852285624432464B
:10292000F240056105A885460145E308D7FCFD5640
:102930006316D700D9471CC00545C1B72E8523A013
:1029400007000297014555BFB787001CAA8503A55C
:10295000475B51BF411122C426C22A842E85B2850D
:1029600006C623A601ECEFE03FB1FD576316F50064
:1029700083A7C1EC91C31CC0B240224492444101E0
:1029800082806FE0BFAE011122CC26CA4AC806CEB3
:102990004EC6AA842E89328409C51C4D99E3EF00E6
:1029A000A057B787001C93870749631BF406C040F4
:1029B0001C4C1CC48357C400A18BD9C31C48C9C379
:1029C0001C4808409379F90F1379F90F1D8D5C4865
:1029D0006347F500A2852685EF00004235E51C44DB
:1029E0000505FD171CC41C401387170018C0238061
:1029F00037015C486389A7008357C400858B89CB66
:102A0000A9476317F900A2852685EF00E03E0DED8A
:102A1000F2406244D244B2494A854249056182800B
:102A2000B787001C9387074B6314F400804449B7B1
:102A3000B787001C93870747E31CF4F6C0448DBF9B
:102A4000A285268521202DDD7D59D9B74111B78773
:102A5000001C26C283A4475B22C44AC006C62A893A
:102A60002E8491C49C4C81E72685EF00E04AB7870D
:102A7000001C938707496317F402C0408317C40002
:102A80001397070193F687004183B5EA9376070110
:102A900095EA25472320E90093E707042316F4006D
:102AA0007D5545A0B787001C9387074B6314F4003E
:102AB0008044E9B7B787001C93870747E310F4FC0D
:102AC000C0446DBF118B15C74C5891C9930744047E
:102AD0006385F5004A85EFF07F81232A040283573E
:102AE000C4002322040093F7B7FD2316F4001C480A
:102AF0001CC08357C40093E787002316F4001C48CA
:102B000089EF8357C4001307002093F707286386D3
:102B1000E700A2854A85EF00005D8317C400139784
:102B2000070193F6170041839DC2544823240400F3
:102B3000B306D04014CC1448014581E6137707084A
:102B400021FFB2402244924402494101828093769F
:102B50002700014691E2504810C4F1BF3798001C8D
:102B600083270880AA889DE33787001C1305877395
:102B70002320A880130300009307877363080300D2
:102B8000832700002324F50893078773D8437D48E3
:102B90007D556346E804638D080203A88708630037
:102BA000080413152700429510C103230810054699
:102BB0003316E6003363C300232068102320D508B2
:102BC00089466397D80083264810558E2322C81063
:102BD000930617000A07D4C3BA978CC701458280B1
:102BE000797152CC56CA5AC862C406D622D426D2AB
:102BF0004AD04ECE5EC666C2AA8A2E8A379B001C79
:102C0000054C03240B80930B0B8011C8444083298F
:102C100084081389F4FF8A04A294635F0900B25008
:102C2000225492540259F249624AD24A424BB24B60
:102C3000224C924C45618280630E0A006395090024
:102C40007D19F114D9BF93172900CE9783A70708E0
:102C5000E39847FF5840DC407D1763182703232281
:102C60002401F9DF832C44006388090083A609103E
:102C700033172C01F98E89EE8297584083A70B00F9
:102C8000E31197F9E30EF4FAADBF23A20400D1BF1C
:102C900093162900CE968C4283A64910758F01E7C2
:102CA00056858297D9BF2E858297C1BF83D7C5002D
:102CB000011122CC26CA06CE4AC84EC613F7870099
:102CC000AA842E846DE7D8416347E000B84163448D
:102CD000E0000145C9A058546DDF03A90400939694
:102CE000370123A0040063DF060668488357C40049
:102CF000918B99C75C401D8D5C5899C33C401D8DDC
:102D00005C540C502A86814626858297FD570357CE
:102D1000C400631DF5009440F54763E5D708B70785
:102D200040208507B3D7D700858BADCF1C48232221
:102D300004001CC09317370163D80700FD576314C4
:102D4000F5009C4091E368C84C5823A02401D1D1E0
:102D5000930744046385F5002685EFF02FD9232AD5
:102D6000040285BF0C508546014626850297FD5713
:102D7000E31EF5F69C40BDDB75476385E7005947C8
:102D80006395E70023A02401A9B78357C40093E704
:102D900007042316F400F2406244D2444249B24987
:102DA00005618280136707042316E400EDB783A949
:102DB0000501E38009F203A905008D8B23A03501ED
:102DC00033093941014791E3D84918C4E35320F14D
:102DD0001C540C50CA864E8626858297634AA000F2
:102DE0008357C4007D5593E707042316F40065B7A5
:102DF000AA993309A940D9BF9C49B9CF011122CC66
:102E000006CE2A8411C51C4D81E72EC63122B2455B
:102E1000B787001C93870749639BF5004C40839755
:102E2000C50095C722856244F240056141B5B78768
:102E3000001C9387074B6394F5000C44CDB7B7870C
:102E4000001C93870747E39CF5FC4C44C9BFF24044
:102E5000624401450561828001458280411122C49E
:102E600006C62A842316B5002317C50023200500B3
:102E7000232205002324050023220506232805001C
:102E8000232A0500232C0500214681451305C5058D
:102E9000EFE0CF8EB737001C9387C7515CD0B737B0
:102EA000001C9387C7541CD4B737001C9387A759BD
:102EB0005CD4B737001C9387075DB24000D01CD8A4
:102EC000224441018280B735001C938585DF89AAA1
:102ED000411126C2130680069384F5FFB384C40211
:102EE0004AC02E8922C406C693854407EFF0CFCA94
:102EF0002A8401CD2320050023222501310508C4A1
:102F0000138684068145EFE06F87B2402285224414
:102F100092440249410182801C4DBDE34111B73703
:102F2000001C22C406C6938767EC1CD5B787001C1B
:102F300083A7C75B2324050423260504232805044F
:102F40002A846314F50085471CCD22851D2848C0BE
:102F50002285052808C422852D2048C44840014602
:102F60009145ED3D08440546A545CD3D48440946FB
:102F7000C945ED358547B2401CCC224441018280D1
:102F800082804111B787001C26C283A4C75B4AC058
:102F900006C69C4C22C42A8999E32685B53F9384B2
:102FA00084048044DC40FD1763D607009C40B9CF01
:102FB0008440C5BF0317C40039E7C17785072322C2
:102FC00004062320040023220400232404005CC4FC
:102FD00023280400232A0400232C040021468145D1
:102FE0001305C405EFD09FF9232A0402232C040201
:102FF0002324040423260404B2402285224492445C
:103000000249410182801304840671BF91454A85BB
:10301000C13588C02A8449FDB1472320F900E9BFA2
:10302000797122D44AD04ECE52CC5AC85EC606D64A
:1030300026D256CA2A892E8A130485048149054B53
:10304000FD5B0444832A4400FD1A63D00A02004059
:103050006DF8B250225492540259624AD24A424BFD
:10306000B24B4E85F2494561828083D7C400637BB1
:10307000FB008397E40063877701A6854A85029A5F
:10308000B3E9A90093848406C1B75971CAD02E89C7
:103090008395E500A2D4A6D286D63284B68463DCBA
:1030A00005008357C90023A0040093F7070895E3A0
:1030B000930700400DA03000EF00A057E34305FE4A
:1030C0003247BD67F98F7977BA9793B717009CC0DD
:1030D000C5B793070004B6501CC026549654065931
:1030E00001456561828083D7C500011122CC06CEDF
:1030F00026CA4AC8898B2E8489CF930774041CC0C2
:103100001CC885475CC8F2406244D244424905610C
:103110008280740030002A898D3FA245AA844A85A6
:10312000EFF08FA701ED8317C40013F7072061FFAD
:10313000F19B93E727002316F400C1B7B737001CB3
:10314000938767EC2324F9028357C40008C008C89A
:1031500093E707082316F400A2475CC8B24791CF53
:103160008315E4004A85EF00A04F01C98357C400CE
:10317000F19B93E717002316F4000355C400C98C94
:103180002316940049B793F5F50F2A966314C500EA
:103190000145828083470500E38DB7FE0505FDB735
:1031A000797152CC9C493A8A984522D426D24ECE87
:1031B00056CA06D64AD05AC85EC6AA892E84B28498
:1031C000B68A63D3E700BA879CC00347340419C3A7
:1031D00085079CC01C4093F7070281C79C40890764
:1031E0009CC00329040013796900631A0900130BBA
:1031F0009401FD5B5C449840998F634CF9048347CC
:103200003404B336F0001C4093F70702A5EB130615
:103210003404D6854E85029AFD576303F5041C409D
:1032200011469840998B544481446397C700B384F6
:10323000E64063D3040081441C4418486354F700FB
:10324000998FBE94014969047D5B6398240501450B
:1032500009A885465A86D6854E85029A631E750151
:103260007D55B250225492540259F249624AD24AD0
:10327000424BB24B456182800509ADBF3307D40094
:1032800013060003A301C7040347540493871600E1
:10329000A2978906A381E7049DBF85462286D6852D
:1032A0004E85029AE30E65FB050945B7797122D474
:1032B00026D24AD04ECE06D652CC56CA5AC803C8D9
:1032C000850193078007AA842E843289B68963EE2C
:1032D0000701930720069386350463ED0701630415
:1032E000081C930780056309F812930A240423013C
:1032F00004050DA89307D8F993F7F70F5546E36631
:10330000F6FE3786001C8A071306864FB2979C4349
:1033100082871C43938A2504938647009C4314C3E9
:103320002381F504854765A29C41084313F60708ED
:10333000930545000DC21C410CC3B785001C63D822
:1033400007001307D002B307F040A301E4049385FC
:10335000054D2947A1A013F607041C410CC371DEDB
:10336000C207C187D9BF90411C43137506089385D6
:10337000470001C50CC39C4339A0137606040CC357
:103380007DDA83D70700B785001C1307F006938505
:10339000054D6304E80E2947A3010404504010C4FE
:1033A0006345060008406D9908C099E3B68A19CEB6
:1033B000B68A33F6E702FD1A2E96034606002380EE
:1033C000CA003E86B3D7E702E375E6FEA147631E57
:1033D000F7001C40858B91CB58401C4863C7E70021
:1033E00093070003A38FFAFEFD1AB386564114C853
:1033F0004E87CA867000A28526855D337D5A631C80
:10340000450D7D55B250225492540259F249624AF8
:10341000D24A424B45618280A3820505B785001CD4
:103420009385054D10400843137806081C4111058B
:10343000630D080208C31377160001C7136606025E
:1034400010C04147B1FB10401376F6FD10C0A9B77C
:103450009C4193E707029CC193078007B785001C36
:10346000A302F4049385454E75BF1378060408C380
:10347000E30308FCC207C1837DBF214731BF9041F0
:103480001C43CC49137806081385470063060800DF
:1034900008C39C438CC301A808C3137606049C434D
:1034A00075DA2390B70023280400B68A91B71C432D
:1034B000D04181459386470014C383AA07005685EF
:1034C000EFF07FCC01C53305554148C05C401CC8B6
:1034D000A301040431BF14485686CA852685829903
:1034E000E30145F31C40898B8DE7B2474844E35B19
:1034F000F5F03E8501BF85465686CA8526858299A8
:10350000E30165F1050A5C443247998FE345FAFE11
:10351000E9BF014A930A94017D5BF5B7411122C4CA
:103520002E848395E50006C6512A634905007C4830
:10353000AA977CC8B2402244410182808357C400CC
:103540007D777D17F98F2316F400EDB783D7C5007B
:10355000011122CC26CA4AC84EC606CE93F70710E0
:10356000AA842E843289B68991C78395E50089465D
:103570000146292A8357C4007D777D17F98F83156B
:10358000E4002316F4006244F240CE864A86B24933
:1035900042492685D24405613DA8411122C42E84AA
:1035A0008395E50006C6DD20FD570357C400631B65
:1035B000F500FD77FD17F98F2316F400B240224481
:1035C000410182808567D98F2316F40068C8FDB752
:1035D0008395E5000DA8411122C426C22A842E85B8
:1035E000B285368606C623A601ECEFD01FEAFD574A
:1035F0006316F50083A7C1EC91C31CC0B2402244FE
:10360000924441018280411122C426C22A842E851F
:1036100006C623A601ECEFD0FFE0FD576316F500C8
:1036200083A7C1EC91C31CC0B24022449244410123
:103630008280411122C426C22A842E85B28506C604
:1036400023A601ECEFD01FE2FD576316F50083A718
:10365000C1EC91C31CC0B24022449244410182801B
:10366000411122C426C22A842E8506C623A601EC57
:10367000EFD01FE0FD576316F50083A7C1EC91C39F
:103680001CC0B2402244924441018280411122C4B4
:1036900026C22A842E85B285368606C623A601EC6C
:1036A000EFD03FDEFD576316F50083A7C1EC91C351
:1036B0001CC0B2402244924441018280411122C484
:1036C00026C22A842E85B285368606C623A601EC3C
:1036D000EFD07FDBFD576316F50083A7C1EC91C3E4
:0C36E0001CC0B240224492444101828090
:10800000785461736B0000002F736372617463684E
:108010002F6164656C7665636368696F2F636F6E4B
:1080200074726F6C2D70756C702D6F70656E2F7320
:10803000772F6672656572746F732F6B65726E65EC
:108040006C2F7461736B732E63000000282028204E
:1080500028202820707844656C61796564546173C8
:108060006B4C69737420292D3E75784E756D626571
:10807000724F664974656D73203D3D20282055423E
:10808000617365547970655F742029203020292040
:108090003F202820282042617365547970655F7401
:1080A000202920312029203A2028202820426173CD
:1080B00065547970655F742029203020292029209B
:1080C0002900000028202820262820707852656189
:1080D00064795461736B734C697374735B20757846
:1080E000546F705072696F72697479205D20292015
:1080F000292D3E75784E756D6265724F66497465BF
:108100006D732029203E20300000000075785363F5
:10811000686564756C657253757370656E646564CB
:1081200000000000785461736B526573756D654192
:108130006C6C0000785461736B496E6372656D6599
:108140006E745469636B0000765461736B53776986
:10815000746368436F6E74657874000025733A2504
:10816000643A20636C5F7461736B5F66696E6973F8
:10817000683A207461736B3D25700A0D00000000A1
:1081800025733A25643A206672656520257020259E
:108190006C640A0D0000000025733A25643A2063E0
:1081A0006C5F706F705F636C75737465725F746120
:1081B000736B20646F6E650A0D00000025733A250D
:1081C000643A2073656E64206E6F746966696361DA
:1081D00074696F6E20746F2066630A0D00000000E2
:1081E000636C5F7461736B5F66696E6973680000CE
:1081F000636C5F706F705F636C75737465725F74CE
:1082000061736B0030203C3D206964202626206984
:1082100064203C204953525F5441424C455F5349CE
:108220005A4500002F736372617463682F6164653F
:108230006C7665636368696F2F636F6E74726F6CC1
:108240002D70756C702D6F70656E2F73772F667241
:10825000656572746F732F647269766572732F63CC
:108260006C69632E6300000030203C3D206964206F
:108270002626206964203C20434C49435F504152EC
:10828000414D5F4E554D5F53524300006972715F1F
:1082900070656E6400000000657869742073756312
:1082A0006365737300000000657869742066616916
:1082B0006C000000746573742063737220616363E3
:1082C00065737365730000007365742075702076A4
:1082D0006563746F72207461626C650073657420ED
:1082E00073687600736574207472696767657220BD
:1082F000747970653A20656467652D747269676783
:108300006572656400000000656E61626C652069DD
:10831000727133313A2073657420636C6963696EDE
:1083200074697033312062697400000073657420D1
:108330006E6C62697473000073657420696E746595
:108340007272757074207072696F726974792061CD
:108350006E64206C6576656C000000007261697364
:108360006520696E746572727570742074687265C8
:1083700073686F6C6420746F206D617820286E6F55
:1083800020696E746572727570742073686F756C95
:10839000642068617070656E29000000656E61621E
:1083A0006C6520696E74657272757074203331006B
:1083B0006C6F77657220696E746572727570742067
:1083C0007468726573686F6C642028696E74657276
:1083D000727570742073686F756C6420686170705A
:1083E000656E2C206D61796265290000496E7465A7
:1083F000727275707420746F6F6B20746F6F206C65
:108400006F6E67006572726F723A20737461636B8E
:10841000206F766572666C6F770A0D002C2066758A
:108420006E6374696F6E3A200000000061737365BB
:108430007274696F6E2022257322206661696C65F3
:10844000643A2066696C6520222573222C206C69B1
:108450006E65202564257325730A0000232D302BBB
:1084600020000000686C4C006566674546470000C8
:1084700000000000000000000000000000000000FC
:1084800000000000000000000000000000000000EC
:1084900000000000000000000000000000000000DC
:1084A00000000000000000000000000000000000CC
:1084B00000000000000000000000000000000000BC
:1084C00000000000000000000000000000000000AC
:1084D00030313233343536373839414243444546FA
:1084E00000000000303132333435363738396162BC
:1084F00063646566000000001233001C2833001C12
:10850000EA32001CEA32001CEA32001CEA32001C8B
:108510002833001CEA32001CEA32001CEA32001C3C
:10852000EA32001C7E34001C6633001C5034001CF0
:10853000EA32001CEA32001CAE34001CEA32001C95
:108540006633001CEA32001CEA32001C5834001C5E
:10855000000000009084001CB084001C7084001C8B
:10856000000000000000000000000000000000000B
:1085700000000000000000000000000000000000FB
:1085800000000000000000000000000000000000EB
:1085900000000000000000000000000000000000DB
:1085A00000000000000000000000000000000000CB
:1085B000208C001C5085001C20D4001C5085001C01
:108C20000000000000000000000000000000000044
:108C30000000000000000000000000000000000034
:108C40000000000000000000000000000000000024
:108C50000000000000000000000000000000000014
:040000051C00088053
:00000001FF
